:020000040800F2
:100000008807002039020008C51000086B1000089E
:10001000C1100008D5030008E51300080000000027
:1000200000000000000000000000000003110008B4
:10003000D90300080000000001110008E1110008C8
:10004000530200085302000853020008530200083C
:10005000530200085302000853020008530200082C
:10006000530200085302000853020008530200081C
:10007000530200085302000853020008530200080C
:100080005302000853020008530200080000000059
:100090000000000000000000000000005302000803
:1000A00053020008530200085302000853020008DC
:1000B00053020008530200085302000853020008CC
:1000C00053020008530200085302000853020008BC
:1000D00053020008A51300085302000800000000A6
:1000E00053020008530200085302000800000000F9
:1000F00000000000000000000000000053020008A3
:1001000000000000530200085302000853020008D8
:1001100000000000000000000000000000000000DF
:10012000530200085302000853020008530200085B
:100130005302000800000000000000000000000062
:100140000000000000000000000000005302000852
:10015000530200085302000853020008530200082B
:1001600053020008530200080000000000000000D5
:10017000000000000000000000000000000000007F
:100180000000000053020008000000000000000012
:10019000530200085302000800F002F800F03CF897
:1001A0000AA090E8000C82448344AAF10107DA45D2
:1001B00001D100F031F8AFF2090EBAE80F0013F0E8
:1001C000010F18BFFB1A43F0010318471413000076
:1001D00034130000103A24BF78C878C1FAD8520707
:1001E00024BF30C830C144BF04680C6070470000B1
:1001F0000023002400250026103A28BF78C1FBD830
:10020000520728BF30C148BF0B6070471FB501F0CF
:1002100055F91FBD10B510BD00F0AAF81146FFF743
:10022000F5FF01F01DF900F0C8F803B4FFF7F2FF85
:1002300003BC01F0D9F8000009488047094800478D
:10024000FEE7FEE7FEE7FEE7FEE7FEE7FEE7FEE786
:10025000FEE7FEE704480549054A064B70470000E3
:10026000E911000899010008880100208807002092
:100270008803002088030020704753EA020C00F036
:1002800069802DE9F04B4FF00006002B1FBFB3FA39
:1002900083F503FA05F424FA05F65E4012BF16430F
:1002A000B2FA82F502FA05F4C5F120051EBF22FA62
:1002B00005FC44EA0C04203556EA044C4FEA144489
:1002C00018BF641C4FF000084FF00009904271EB1A
:1002D000030C39D3002919BFB1FA81F701FA07F6E7
:1002E000B0FA80F700FA07F6C7F120071EBF20FA20
:1002F00007FC46EA0C062037B6FBF4FCA7EB050723
:10030000103F07F01F0BCBF120060CFA0BFB2CFA69
:1003100006F644BFB3460026202FA4BF5E464FF02A
:10032000000B5BEA060C08BF4FF0010B19EB0B0941
:10033000ABFB027C48EB0608C01B06FB02CC0BFBA8
:1003400003CC71EB0C01C1E70B460246414648461F
:10035000BDE8F08B13B54FF000004FF00001AFF394
:100360000080BDE81C407047704770477047704779
:10037000754600F02BF8AE4605006946534620F05E
:100380000700854618B020B5FFF764FFBDE82040A0
:100390004FF000064FF000074FF000084FF0000B41
:1003A00021F00701AC46ACE8C009ACE8C009ACE8F4
:1003B000C009ACE8C0098D46704710B50446AFF3DC
:1003C00000802046BDE81040FFF72FBF004870476F
:1003D0002401002000BFFEE77047014691F8350078
:1003E000022803D08020486501207047052081F84D
:1003F00035000868006820F001000A6810600020DD
:10040000F3E70000F8B503460A4600250024002063
:100410000021CDE0012606FA01F5166806EA05047A
:10042000AC4273D15668022E02D05668122E13D1F8
:10043000CF0803F1200656F827004E07F70E0F26C7
:10044000BE40B0434F07FF0E1669BE403043CF0891
:1004500003F1200646F8270018684F000326BE4027
:10046000B043167906F003064F00BE4030431860D3
:100470005668012E08D05668022E05D05668112EF7
:1004800002D05668122E13D198684F000326BE4042
:10049000B0434F00D668BE4030439860586801268C
:1004A0008E40B0431679C6F300168E403043586034
:1004B000D8684F000326BE40B0434F009668BE4048
:1004C0003043D860566806F08056B6F1805F6ED132
:1004D00000BF00260096384E366846F48046364FF8
:1004E0003E603E46366806F48046009600BF00BF78
:1004F000324E8F0856F827008E07370F0F26BE4062
:10050000B0432F4EB34202D1002615E04FE02D4EEE
:10051000B34201D101260FE02B4EB34201D1022696
:100520000AE02A4EB34201D1032605E0284EB34229
:1005300001D1042600E007268F073F0FBE4030435D
:100540001E4E8F0846F82700224E3068A04356689A
:1005500006F48036B6F5803F00D120431D4E306052
:10056000361D3068A043566806F40036B6F5003FE5
:1005700000D12043174E361D3060361D3068A04331
:10058000566806F48016B6F5801F00D12043114E40
:1005900008363060361D3068A043566806F40016F1
:1005A000B6F5001F00D120430A4E0C363060491CBE
:1005B0001029FFF42FAFF8BD44380240083801403D
:1005C000000002400004024000080240000C02400B
:1005D00000100240003C01400AB1816101E00B04BF
:1005E00083617047014800687047000010000020D8
:1005F00003480068034909780844014908607047C6
:10060000100000201800002010B50D48006840F4CC
:1006100000700B4908600846006840F4806008607C
:100620000846006840F480700860032000F070F80D
:100630000F2000F007F800F02BF8002010BD00009C
:10064000003C024070B504460E4800784FF47A71C1
:10065000B1FBF0F00C490968B1FBF0F5284600F059
:10066000C1FB08B1012070BD102C07D20022214629
:10067000501E00F00EF80548046001E00120F2E78A
:100680000020F0E7180000200000002014000020E7
:1006900070472DE9F05F80460D461646002700F0B2
:1006A00013FD074639462A46334601F00700C0F1DC
:1006B000070ABAF1040F02D94FF0040A01E0C0F1B1
:1006C000070AD14600F1040ABAF1070F02D24FF02F
:1006D000000A01E0A0F1030AD4464FF0010A0AFA29
:1006E00009FAAAF1010A0AEA020A0AFA0CFA4FF018
:1006F000010B0BFA0CFBABF1010B0BEA030B4AEA03
:100700000B042146404600F0E7FCBDE8F09F0000E6
:1007100000BF00F00702064B19684FF6FF031940AF
:10072000044B0B4343EA0221014B196000BF7047A1
:100730000CED00E00000FA0570B504460D460CB95A
:10074000012070BD5848006800F00F00A84209D28F
:1007500055490D700846006800F00F00A84201D00E
:100760000120EEE7207800F0020002281DD1207859
:1007700000F00400042805D14C48006840F4E05023
:100780004A490860207800F00800082805D1474849
:10079000006840F46040454908604448006820F023
:1007A000F000A168084341490860207800F001008A
:1007B000A8B36068012807D13C4808380068C0F336
:1007C0004040B8B90120BCE76068022802D06068E8
:1007D000032807D1354808380068C0F3406048B99D
:1007E0000120AEE7314808380068C0F3400008B97E
:1007F0000120A6E72D48006820F003006168084347
:100800002A490860FFF7EEFE064609E0FFF7EAFE18
:10081000801B41F28831884202D9032091E707E02A
:100820002248006800F00C006168B0EB810FEDD148
:100830001D48006800F00F00A84209D91A490D7040
:100840000846006800F00F00A84201D0012078E7B8
:10085000207800F00400042807D11448006820F430
:10086000E050E168084311490860207800F0080072
:10087000082808D10D48006820F46040216940EA4A
:10088000C1000A49086000F01DF808490968C1F371
:100890000311074A515CC840064908600F20FFF762
:1008A000D1FE00204DE70000003C02400838024025
:1008B000C6140008000000200148006870470000CE
:1008C000000000202DE9F047002400250026A14665
:1008D0002548006800F00C0020B1042805D0082845
:1008E0003AD105E0DFF8849039E0DFF8849036E013
:1008F0001D48001F006800F03F041B48001F0068EF
:1009000000F4800078B11A481749091F0968C1F33B
:100910008811A0FB01700146224600233846FFF7EC
:10092000ACFC05460EE011480F49091F0968C1F3E8
:100930008811A0FB01700146224600233846FFF7CC
:100940009CFC05460848001F0068C0F30140401C9D
:100950004600B5FBF6F902E0DFF8109000BF00BFDB
:100960004846BDE8F0870000083802400024F40043
:1009700000127A00F8B504460CB90120F8BD2078C1
:1009800000F00100002874D0F948006800F00C0065
:1009900004280DD0F648006800F00C00082813D198
:1009A000F348001F006800F48000B0F5800F0BD101
:1009B000EF4808380068C0F34040002859D060680C
:1009C000002856D10120D9E700BF6068B0F5803F0C
:1009D00008D1E7480838006840F48030E449083915
:1009E00008601EE06068B0F5A02F0DD1E04808381F
:1009F000006840F48020DE49083908600846006835
:100A000040F4803008600CE0D9480838006820F4D1
:100A10008030D749083908600846006820F48020F3
:100A2000086000BF606890B1FFF7DCFD054606E096
:100A3000FFF7D8FD401B642801D903209EE7CC486E
:100A400008380068C0F340400028F1D011E0FFF7FB
:100A5000C9FD054606E0FFF7C5FD401B642801D926
:100A600003208BE7C24808380068C0F340400028E4
:100A7000F1D1207800F0020002285FD1BC48006864
:100A800000F00C0058B1BA48006800F00C000828CB
:100A90001CD1B748001F006800F48000B0B9B4480A
:100AA00008380068C0F3400020B1E068012801D098
:100AB000012063E7AE480838006820F0F80021699B
:100AC00040EAC100AA490839086037E0E06800B38D
:100AD0000120A8490860FFF785FD054606E0FFF7FD
:100AE00081FD401B022801D9032047E7A0480838B0
:100AF0000068C0F340000028F1D09D480838006825
:100B000020F0F800216940EAC100994908390860DD
:100B100014E0002097490860FFF764FD054606E0F1
:100B2000FFF760FD401B022801D9032026E790480B
:100B300008380068C0F340000028F1D1207800F0A8
:100B4000080008282CD16069A8B101208A490860F2
:100B5000FFF748FD054606E0FFF744FD401B02286D
:100B600001D903200AE782486C300068C0F34000D6
:100B70000028F1D014E000207F490860FFF732FD23
:100B8000054606E0FFF72EFD401B022801D9032091
:100B9000F4E677486C300068C0F340000028F1D1DB
:100BA000207800F00400042870D100267048383006
:100BB000006800F0805090B900BF002000906C48A1
:100BC0003830006840F08050694938310860084684
:100BD000006800F08050009000BF00BF0126674809
:100BE000006800F48070B0B96448006840F4807018
:100BF00062490860FFF7F6FC054606E0FFF7F2FCE5
:100C0000401B022801D90320B8E65C48006800F4C4
:100C100080700028F2D000BFA068012808D1544895
:100C20006830006840F001005149683108601DE0FB
:100C3000A06805280DD14E486830006840F00400D7
:100C40004B49683108600846006840F001000860C0
:100C50000CE047486830006820F0010044496831E2
:100C600008600846006820F00400086000BFA06823
:100C7000A8B1FFF7B7FC054609E0FFF7B3FC401B3E
:100C800041F28831884202D9032077E626E03848CD
:100C900068300068C0F340000028EED013E0FFF792
:100CA000A1FC054608E0FFF79DFC401B41F288319E
:100CB000884201D9032061E62D4868300068C0F3FE
:100CC00040000028EFD1012E07D1294838300068B4
:100CD00020F0805026493831086000BFA069B8B3C1
:100CE0002348006800F00C0008285ED0A0690228A4
:100CF00046D100201F490866FFF774FC054606E050
:100D0000FFF770FC401B022801D9032036E6184883
:100D100008380068C0F340600028F1D1D4E9070129
:100D20000843616A40EA81110122A06AC2EB5000C7
:100D300041EA00412C20005D41EA00600C49091F96
:100D4000086001200B490866FFF74CFC054607E0E8
:100D50002DE0FFF747FC401B022801D903200DE6D8
:100D6000034808380068C0F340600028F1D01EE056
:100D70000838024000004742800E474200700040A1
:100D800000200C490866FFF72DFC054606E0FFF73A
:100D900029FC401B022801D90320EFE50648006822
:100DA000C0F340600028F2D101E00120E6E5002018
:100DB000E4E500000000474200380240042808D162
:100DC0004FF0E021096941F004014FF0E022116188
:100DD00007E04FF0E021096921F004014FF0E02223
:100DE0001161704770B504462546681EB0F1807FDA
:100DF00001D301200FE0681E4FF0E02148610F2170
:100E00004FF0FF3000F068F900204FF0E0218861DA
:100E100007200861002070BD7047014600220023B2
:100E200091F8392091F83A3042EA03007047000007
:100E30002DE9F0470446206805682068C6682068E8
:100E400047694FF00008C14605F00F08B8F1000FE0
:100E50000AD105F0200038B106F0200020B120466C
:100E600000F01EFABDE8F087B8F1000F6DD007F072
:100E7000010018B906F49070002866D005F0010052
:100E800030B106F4807018B1E06B40F00100E0630F
:100E900005F0040030B107F0010018B1E06B40F03C
:100EA0000200E06305F0020030B107F0010018B164
:100EB000E06B40F00400E06305F0080030B107F09B
:100EC000010018B1E06B40F00800E063E06B68B32C
:100ED00005F0200028B106F0200010B1204600F0F7
:100EE000DFF920684069C0F38019E06B00F008006A
:100EF00010B9B9F1000F22D0204600F0B1F92068F6
:100F0000406900F04000B0B12068406920F0400026
:100F100021684861606B50B11748616B0865606B70
:100F2000FFF75BFA10B1606B016D88470CE020465B
:100F3000FFF772FF08E02046FFF76EFF04E020464F
:100F4000FFF76AFF0020E0638CE705F0800030B116
:100F500006F0800018B1204600F0EFF982E705F0B6
:100F6000400030B106F0400018B1204600F088F98A
:100F700078E700BF76E700004D12000810B5034681
:100F800093F83A00202829D101B10AB9012010BDF7
:100F900000BF93F83800012801D10220F7E70120B3
:100FA00083F8380000BF99629A85DA850020D863FB
:100FB000222083F83A0000BF002083F8380000BFE9
:100FC0001868406940F001001C6860611868C068DA
:100FD00040F490701C68E0600020D8E70220D6E75B
:100FE0001D4A0168914236D11C49098801F400412B
:100FF00089BB1A49098801F4804171B118490978FF
:101000000A2903D00021154A118024E013490988D8
:1010100041F40041114A11801DE0114909780D2960
:1010200006D10E49098841F480410C4A118012E032
:101030000B490978094A1288C2F30D02094B9954E9
:1010400006490988491C054A118011460988C729A3
:1010500001DD002111807047001001400C000020CC
:101060000E0000201C000020704700BFFEE70000BB
:1010700000B587B000BF002001900F48006840F025
:1010800004000D4908600846006800F00400019063
:1010900000BF00BFFF2002900120039004900320B6
:1010A00005900122FF210548FFF796FA02A903489F
:1010B000FFF7A8F907B000BD303802400008024031
:1010C00000BFFEE77047000002480068C0F302203E
:1010D000704700000CED00E010B5002807DA0A07A1
:1010E000140E054A00F00F031B1FD45403E00A0737
:1010F000130E024A135410BD18ED00E000E400E0A6
:10110000704770472DE9F04393B004460D461646EC
:101110009846002700BF002001902F48006840F04B
:1011200080502D4908600846006800F0805001900A
:1011300000BF00BF00BF002001902848006840F4B5
:101140004040264908600846006800F4404001908D
:1011500000BF00BF012007900004089002200D90FE
:1011600041050E910F9510941196CDF8488007A86F
:10117000FFF700FC07460FB100BFFEE70F2002900B
:1011800002200390002004904FF48050059000202E
:101190000690032102A8FFF7CFFA07460FB100BF60
:1011A000FEE7FFF789FB4FF47A71B0FBF1F948468F
:1011B000FFF718FEFFF780FB4FF47A71B0FBF1F9EF
:1011C0004846FFF70FFE00221146501EFFF761FA56
:1011D00013B0BDE8F08300004038024000700040CA
:1011E00010B5FFF705FA10BD1448006840F4700010
:1011F000124908601248006840F001001049086078
:1012000000200F49083108600D4800680D4908406A
:101210000B4908600C48091D0860081F006820F48D
:101220008020091F0860002005490C3108604FF03C
:1012300000600249803908607047000088ED00E0D6
:1012400000380240FFFFF6FE1030002470B505465E
:10125000AC6B0020E085E0842046FFF7DDFD70BD2B
:101260000168C96821F490710268D1600168496918
:1012700021F0010102685161202180F83A10704785
:1012800010B504462068C06820F040002168C8609E
:10129000202084F839002046FFF7E6FE002010BD2C
:1012A00070B5044694F83A00222844D1A068B0F5FD
:1012B000805F13D1A56A206940B920684068C0F3F7
:1012C00008002880A06A801CA06219E0206840689D
:1012D000C0B22880A06A401CA06211E0206938B921
:1012E00020684068C1B2A26A501CA062117007E079
:1012F0002068406800F07F01A26A501CA062117053
:10130000E08D401E80B2E08598B92068C06820F466
:1013100090702168C8602068406920F00100216851
:101320004861202084F83A002046FFF759FE00204B
:1013300070BD0020FCE70220FAE7014691F8390071
:1013400021282CD18868B0F5805F0FD10A6A1088F7
:10135000C0F308000B685860086918B9086A801C57
:10136000086209E0086A401C086205E00B6A581C24
:10137000086218780B685860C88C401E80B2C88418
:1013800058B90868C06820F080000B68D860086809
:10139000C06840F040000B68D86000207047022011
:1013A000FCE7000010B500240C48FFF741FD00BF2A
:1013B00001E0641C00BF0948FFF72FFD2028F8D189
:1013C00000BF002401E0641C00BF0122044903485F
:1013D000FFF7D4FD0028F6D100BF10BDE4000020C7
:1013E0000E00002000BFFEE700BF704710B50446A6
:1013F0000420FFF7E3FC0148046010BD0400002056
:1014000030B50446002504E04FF47A7000F004F88B
:101410006D1CA542F8D330BD70B5034600224FF0D5
:10142000E02675690D4E366803FB06F44FF0E026A2
:10143000B16910E04FF0E026B06988420BD08842D5
:1014400002D20E1A324402E02E1A0E4432440146F1
:10145000A24200D300E0EDE700BF70BD0400002011
:10146000FFF7D2F80423022219466020FFF74AFE54
:101470006020FFF7BBFFFFF7FBFD1BE00022802190
:101480000D48FFF7A9F8012240210B48FFF7A4F807
:101490004FF4FA70FFF7B4FF012280210648FFF7EE
:1014A0009BF8002240210448FFF796F84FF4FA70A9
:1014B000FFF7A6FFE2E70000000802404FF040708F
:1014C000E1EE100A70470000000000000000010279
:1014D00003040607080900000000010203040000DD
:1014E00000150008000000201C000000D4010008C6
:1014F0001C1500081C0000206C070000F00100080B
:101500000024F400000000000000000000000000C3
:0C151000000000001000000001000000BE
:040000050800019955
:00000001FF
