:020000040800F2
:10000000F81300209502000899120008DF1100087B
:10001000951200083D030008511D00080000000073
:10002000000000000000000000000000D71A0008D7
:100030004103000800000000D51A0008311B000829
:10004000AF020008AF020008AF020008AF020008CC
:10005000AF020008AF020008AF020008AF020008BC
:10006000AF020008AF020008AF020008AF020008AC
:10007000AF020008AF020008AF020008AF0200089C
:10008000AF020008AF020008AF020008AF0200088C
:10009000AF020008AF020008AF020008AF0200087C
:1000A000AF020008AF020008AF020008AF0200086C
:1000B000AF020008AF020008AF020008AF0200085C
:1000C000AF020008AF020008AF020008AF0200084C
:1000D000AF020008111D0008AF020008AF020008BF
:1000E000AF020008AF020008AF020008AF0200082C
:1000F000AF020008AF020008AF020008AF0200081C
:10010000AF020008AF020008AF020008AF0200080B
:10011000AF020008AF020008AF020008AF020008FB
:10012000AF020008AF020008AF020008AF020008EB
:10013000AF020008AF020008AF020008AF020008DB
:10014000AF020008AF020008AF020008AF020008CB
:10015000AF020008AF020008AF020008AF020008BB
:10016000AF020008AF020008AF020008AF020008AB
:10017000AF020008AF020008AF0200080000000054
:10018000AF020008AF020008AF020008AF0200088B
:10019000AF020008AF020008AF020008AF0200087B
:1001A0000000000000000000AF02000800F002F8AC
:1001B00000F060F80AA090E8000C82448344AAF1A1
:1001C0000107DA4501D100F055F8AFF2090EBAE89F
:1001D0000F0013F0010F18BFFB1A43F0010318477B
:1001E000B43B0000D43B000010F8013B0A4413F07C
:1001F000030408BF10F8014B1D1108BF10F8015B84
:10020000641E05D010F8016B641E01F8016BF9D172
:10021000002D15D010F8014B03F00C030C2BA1EBB3
:1002200004040ABF10F8013BA4EB8314A4EB0324DD
:1002300005F1010314F8016B5B1E01F8016BF9D5A0
:10024000914238BF10F8013BD1D3704700230024FE
:1002500000250026103A28BF78C1FBD8520728BFD6
:1002600030C148BF0B6070471FB501F07DFE1FBD58
:1002700010B510BD00F033F81146FFF7F5FF01F09F
:100280006BFD00F051F803B4FFF7F2FF03BC01F07F
:1002900061FD00000948804709480047FEE7FEE786
:1002A000FEE7FEE7FEE7FEE7FEE7FEE7FEE7FEE726
:1002B00004480549054A064B70470000A11B000889
:1002C000AD010008F80D0020F8130020F80F002001
:1002D000F80F0020704770477047704770477546A9
:1002E00000F028F8AE4605006946534620F00700A6
:1002F000854618B020B5FFF7DBFFBDE820404FF082
:1003000000064FF000074FF000084FF0000B21F0FF
:100310000701AC46ACE8C009ACE8C009ACE8C009CC
:10032000ACE8C0098D4670470446AFF30080204614
:10033000FFF7A9FF00487047980D002000BFFEE7B7
:10034000704731B5002400F01DF9044600BF00F0ED
:1003500019F9001B00998842F9D338BDF8B5024657
:100360000B460025002400200021E6E0012606FAC5
:1003700001F51E6806EA0504AC4273D15E68022EE0
:1003800002D05E68122E13D1CF0802F1200656F873
:1003900027004E07F70E0F26BE40B0434F07FF0E53
:1003A0001E69BE403043CF0802F1200646F8270000
:1003B00010684F000326BE40B0431E7906F00306C6
:1003C0004F00BE40304310605E68012E08D05E686A
:1003D000022E05D05E68112E02D05E68122E13D157
:1003E00090684F000326BE40B0434F00DE68BE4019
:1003F00030439060506801268E40B0431E79C6F3AA
:1004000000168E4030435060D0684F000326BE4037
:10041000B0434F009E68BE403043D0605E6806F037
:100420008056B6F1805FA8D100BF00260096454EE9
:10043000366846F48046434F3E603E46366806F4D2
:100440008046009600BF00BF3F4E8F0856F8270039
:100450008E07370F0F26BE40B0433C4EB24202D14A
:1004600000262EE068E03A4EB24201D1012628E093
:10047000384EB24201D1022623E0374EB24201D1BA
:1004800003261EE0354EB24201D1042619E0344E57
:10049000B24201D1052614E0324EB24201D1062605
:1004A0000FE0314EB24201D107260AE02F4EB24290
:1004B00001D1082605E02E4EB24201D1092600E006
:1004C0000A268F073F0FBE4030431F4E8F0846F865
:1004D0002700284E3068A0435E6806F48036B6F5E3
:1004E000803F00D12043234E3060361D3068A0434A
:1004F0005E6806F40036B6F5003F00D120431D4E7D
:10050000361D3060361D3068A0435E6806F48016E4
:10051000B6F5801F00D12043164E08363060361DD8
:100520003068A0435E6806F40016B6F5001F00D1DF
:100530002043104E0C363060491C1029FFF416AFD2
:10054000F8BD000044380240083801400000024075
:100550000004024000080240000C0240001002406B
:100560000014024000180240001C0240002002401B
:1005700000240240003C01400AB1816101E00B040B
:10058000836170470148006870470000040800203C
:1005900002480068401C01490860704704080020B8
:1005A00010B50D48006840F400700B49086008461B
:1005B000006840F4806008600846006840F480707D
:1005C0000860052000F060F80F2000F007F800F048
:1005D00017F8002010BD0000003C024070B5044632
:1005E00000F030FA4FF47A71B0FBF1F5284600F0D4
:1005F000B7FC00222146501E00F007F8002070BD15
:1006000008B50020009000BF08BD2DE9F05F8046CE
:100610000D461646002700F041FE074639462A4699
:10062000334601F00700C0F1070ABAF1040F02D9FE
:100630004FF0040A01E0C0F1070AD14600F1040AB4
:10064000BAF1070F02D24FF0000A01E0A0F1030A4D
:10065000D4464FF0010A0AFA09FAAAF1010A0AEA95
:10066000020A0AFA0CFA4FF0010B0BFA0CFBABF181
:10067000010B0BEA030B4AEA0B042146404600F04B
:1006800015FEBDE8F09F000000BF00F00702064B1A
:1006900019684FF6FF031940044B0B4343EA02214C
:1006A000014B196000BF70470CED00E00000FA0537
:1006B00038B50546002400BF00200090324800688D
:1006C00040F08050304908600846006800F08050D3
:1006D000009000BF00BF2C483838006800F00C00C4
:1006E00008284CD0002029490866FFF74BFF044634
:1006F00006E0FFF747FF001B642801D9032038BD3F
:10070000214840380068C0F340600028F1D100BFA4
:1007100000901F48006820F4404028431C490860AE
:100720000846006800F44040009000BF00BF012070
:1007300016490866FFF726FF044606E0FFF722FF8A
:10074000001B642801D90320D9E70F48403800680E
:10075000C0F340600028F1D0FFF714FF044607E023
:10076000FFF710FF001BB0F57A7F01D90320C6E721
:1007700007484068C0F380300028F1D001E0012034
:10078000BDE70020BBE700004038024000004742C0
:100790000070004070B504460E460025A74800686A
:1007A00000F00F00B0426FD2A4490E7008460068F6
:1007B00000F00F00B04201D0012070BD207800F0A1
:1007C0000200022807D19E48006820F0F000A168CE
:1007D00008439B490860207800F0010000283ED0C3
:1007E0006068012807D1964808380068C0F3404087
:1007F000B8B90120E1E76068022802D060680328E8
:1008000007D18F4808380068C0F3406048B901201C
:10081000D3E78B4808380068C0F3400008B90120CE
:10082000CBE78748006820F00300616808438449EB
:100830000860FFF7A7FE05466068012810D108E0B0
:10084000FFF7A0FE401B41F28831884201D9032006
:10085000B3E77B48006800F00C000428F0D1CDE03D
:100860006068022811D108E0FFF78CFE401B41F2BE
:100870008831884201D903209FE77148006800F061
:100880000C000828F0D1B9E024E06068032810D1FA
:1008900008E0FFF777FE401B41F28831884201D91A
:1008A00003208AE76648006800F00C000328F0D1B6
:1008B000A4E008E0FFF766FE401B41F28831884261
:1008C00001D9032079E75E48006800F00C00002899
:1008D000F0D193E0207800F00200022807D15848B8
:1008E000006820F0F000A1680843554908602078AE
:1008F00000F00100002877D06068012807D1504837
:1009000008380068C0F34040B8B9012055E7606876
:10091000022802D06068032807D1494808380068D7
:10092000C0F3406048B9012047E7454808380068EF
:10093000C0F3400008B901203FE74148006820F0BB
:100940000300616808433E490860FFF71BFE054647
:100950006068012810D108E0FFF714FE401B41F247
:100960008831884201D9032027E73548006800F024
:100970000C000428F0D137E06068022810D108E0AC
:10098000FFF700FE401B41F28831884201D9032065
:1009900013E72B48006800F00C000828F0D123E092
:1009A0006068032810D108E0FFF7ECFD401B41F21E
:1009B0008831884201D90320FFE62148006800F011
:1009C0000C000328F0D10FE008E0FFF7DBFD401B2F
:1009D00041F28831884201D90320EEE618480068C8
:1009E00000F00C000028F0D114490E700846006891
:1009F00000F00F00B04201D00120DEE6207800F0C8
:100A00000400042807D10E48006820F4E050E16893
:100A100008430B490860207800F00800082808D136
:100A20000748006820F46040216940EAC100044999
:100A300008600F20FFF7D2FD0020BEE6003C024018
:100A40000838024010B500F019F80949096801F0AA
:100A5000F001F02292FAA2F2B2FA82F2D140054AF3
:100A6000515CC840044908600846006810BD000099
:100A700008380240721F00080008002070B50021ED
:100A8000002200230020274C246804F00C0424B129
:100A9000042C04D0082C41D103E0234840E0234833
:100AA0003EE0204C241F246804F03F011D4C241F0D
:100AB000246804F4800484B11C4CB4FBF1F5194C97
:100AC000241F246847F6C076344096FAA6F6B6FA94
:100AD00086F6F44005FB04F20FE0134CB4FBF1F58D
:100AE000104C241F246847F6C076344096FAA6F6C8
:100AF000B6FA86F6F44005FB04F20A4C241F24687B
:100B000004F440344FF4403595FAA5F5B5FA85F56F
:100B1000EC40641C6300B2FBF3F001E0024800BF4C
:100B200000BF70BD083802400024F40040787D0109
:100B300038B504460025207800F00100002866D072
:100B4000F748006800F00C0004280DD0F448006855
:100B500000F00C00082813D1F148001F006800F4D1
:100B60008000B0F5800F0BD1ED4808380068C0F365
:100B7000404000284BD06068002848D1012038BD93
:100B80000020E749891F0870FFF7FCFC054608E0D4
:100B9000FFF7F8FC401B41F28831884201D903205D
:100BA000EDE7DF4808380068C0F340400028EFD187
:100BB0002079DB49891F08706068A0B1FFF7E2FC6B
:100BC000054608E0FFF7DEFC401B41F28831884211
:100BD00001D90320D3E7D24808380068C0F3404069
:100BE0000028EFD013E0FFF7CDFC054608E0FFF743
:100BF000C9FC401B41F28831884201D90320BEE77D
:100C0000C74808380068C0F340400028EFD120787A
:100C100000F00200022869D1C148006800F00C0011
:100C200058B1BF48006800F00C00082821D1BC482A
:100C3000001F006800F48000D8B9B948083800687F
:100C4000C0F3400020B1E068012801D0012096E700
:100C5000B3480838006820F0F800F82292FAA2F2AF
:100C6000B2FA82F2216991400843AD49083908601F
:100C70003CE0E06828B30120AA490860FFF782FC45
:100C8000054606E0FFF77EFC401B642801D90320DF
:100C900075E7A34808380068C0F340000028F1D089
:100CA0009F480838006820F0F800F82292FAA2F273
:100CB000B2FA82F2216991400843994908390860E3
:100CC00014E0002097490860FFF75CFC054606E049
:100CD000FFF758FC401B642801D903204FE79048D8
:100CE00008380068C0F340000028F1D1207800F0F7
:100CF000080008282CD16069A8B101208A49086041
:100D0000FFF740FC054606E0FFF73CFC401B64286B
:100D100001D9032033E782486C300068C0F34000FB
:100D20000028F1D014E000207F490860FFF72AFC7A
:100D3000054606E0FFF726FC401B642801D9032086
:100D40001DE777486C300068C0F340000028F1D1FF
:100D5000207800F0040004286FD100BF002000902C
:100D60006F483830006840F080506D493831086075
:100D70000846006800F08050009000BF00BF6B483C
:100D8000006840F4807069490860FFF7FBFB054686
:100D900006E0FFF7F7FB401B642801D90320EEE6CD
:100DA0006248006800F480700028F2D000205C499E
:100DB00068310870FFF7E6FB054608E0FFF7E2FB45
:100DC000401B41F28831884201D90320D7E65448BC
:100DD00068300068C0F340000028EFD1207A504905
:100DE00068310870A068A0B1FFF7CCFB054608E0A9
:100DF000FFF7C8FB401B41F28831884201D903202C
:100E0000BDE6474868300068C0F340000028EFD0D6
:100E100013E0FFF7B7FB054608E0FFF7B3FB401B05
:100E200041F28831884201D90320A8E63C48683065
:100E30000068C0F340000028EFD1A069F0B3384843
:100E4000006800F00C00082872D0A069022850D178
:100E5000002034490866FFF795FB054606E0FFF7DA
:100E600091FB401B642801D9032088E62C480838F0
:100E70000068C0F340600028F1D1D4E907010843BD
:100E800047F6C07292FAA2F2B2FA82F2616A914017
:100E900008430122A16AC2EB51014FF4403292FA99
:100EA000A2F2B2FA82F2914008434FF0706292FAD5
:100EB000A2F2B2FA82F2E16A914000E03AE008431D
:100EC0001749091F0860012016490866FFF75AFBF9
:100ED000054606E0FFF756FB401B642801D90320B6
:100EE0004DE60F4808380068C0F340600028F1D094
:100EF00020E000200B490866FFF744FB054606E0AA
:100F0000FFF740FB401B642801D9032037E6044863
:100F100008380068C0F340600028F1D10AE007E01B
:100F20000838024000004742800E474200700040EF
:100F3000012024E6002022E6042808D14FF0E02119
:100F4000096941F004014FF0E022116107E04FF020
:100F5000E021096921F004014FF0E022116170479E
:100F600070B504462546681EB0F1807F01D301208C
:100F70000FE0681E4FF0E02148610F214FF0FF3075
:100F800000F094F900204FF0E0218861072008610B
:100F9000002070BD7047014691F839007047F8B5E0
:100FA0000446002500262068006800F0010520683E
:100FB000C06800F480767DB176B100BF002000905B
:100FC00020680068009020684068009000BF00BF63
:100FD000E06B40F00100E06320680068C0F340056A
:100FE0002068406900F001067DB176B100BF0020A5
:100FF000009020680068009020684068009000BF62
:1010000000BFE06B40F00400E06320680068C0F3BC
:1010100080052068406900F001067DB176B100BF0F
:1010200000200090206800680090206840680090D0
:1010300000BF00BFE06B40F00200E0632068006882
:10104000C0F3C0052068406900F001067DB176B1AB
:1010500000BF002000902068006800902068406871
:10106000009000BF00BFE06B40F00800E063206824
:101070000068C0F340152068C06800F020061DB16C
:1010800016B1204600F0AEFD20680068C0F3C01520
:101090002068C06800F080061DB116B1204600F03F
:1010A000FFFD20680068C0F380152068C06800F06C
:1010B00040061DB116B1204600F07CFDE06B28B162
:1010C000012084F839002046FFF764FFF8BD30B5F1
:1010D0000346002493F83940012C01D0122C37D15B
:1010E00001B10AB9012030BD00BF93F838000128D2
:1010F00001D10220F7E7012083F8380000BF996290
:101100009A85DA850020D86393F83900122803D134
:10111000322083F8390002E0222083F83900186871
:10112000C06840F480701D68E8601868406940F04D
:1011300001001D68686100BF002083F8380000BF0F
:101140001868C06840F020001D68E8600020CAE709
:101150000220C8E71D4A0168914236D11C4909881E
:1011600001F4004189BB1A49098801F4804171B139
:10117000184909780A2903D00021154A118024E072
:101180001349098841F40041114A11801DE01149B9
:1011900009780D2906D10E49098841F480410C4A8D
:1011A000118012E00B490978094A1288C2F30D0236
:1011B000094B995406490988491C054A1180114672
:1011C0000988C72901DD0021118070470010014006
:1011D0000C0800200E08002010080020704700BFF7
:1011E000FEE7000010B50122D1020D48FFF7C4F957
:1011F000012291020A48FFF7BFF900F043F80022EC
:101200004FF400610648FFF7B7F900F03BF8002201
:101210004FF480610248FFF7AFF900F033F810BDDA
:101220000004024010B500224FF400610748FFF7A8
:10123000A3F9012291020548FFF79EF900F022F878
:101240000122D1020148FFF797F910BD00040240C6
:1012500010B50122D1020A48FFF78EF900F012F80A
:10126000012291020648FFF787F900F00BF80022EF
:101270004FF480610248FFF77FF900F003F810BDDA
:1012800000040240032000BF0100A0F10102D0B21F
:10129000FAD1704700BFFEE77047000002480068BF
:1012A000C0F30220704700000CED00E010B50028EC
:1012B00007DA0A07140E054A00F00F031B1FD45467
:1012C00003E00A07130E024A135410BD18ED00E0A4
:1012D00000E400E070B500240CE0002506E00020EA
:1012E000074901EBC5010855681CC5B2802DF6DB26
:1012F000601CC4B2082CF0DB00F054F970BD000093
:1013000018090020F0B514460B46CF1701EB5777AC
:10131000C7F3C702CF1701EB5777FF10A1EBC70741
:10132000FEB20123B340DDB24CB1134B03EBC0035B
:101330009B5C2B43104F07EBC007BB541AE00E4BCE
:1013400003EBC0039B5CDB430B4F07EBC007BB54B5
:10135000094B03EBC0039B5C2B43074F07EBC00714
:10136000BB54054B03EBC0039B5CDB43024F07EB15
:10137000C007BB54F0BD00001809002000B587B0BD
:1013800000BF002001907D48006840F001007B49CB
:1013900008600846006800F00100019000BF00BF2F
:1013A00000BF002001900846006840F0020008607D
:1013B0000846006800F00200019000BF00BF00BFB7
:1013C000002001900846006840F0040008600846CC
:1013D000006800F00400019000BF00BF00BF0020C3
:1013E00001900846006840F0080008600846006860
:1013F00000F00800019000BF00BF00BF0020019076
:101400000846006840F0100008600846006800F0D8
:101410001000019000BF00BF4FF440600290112007
:101420000390012004900220059002A95448FEF781
:1014300095FF01224FF440615148FFF79DF84FF4AA
:10144000005002900120039004900220059002A910
:101450004C48FEF783FF4FF4804002900120039038
:1014600004900220059002A94748FEF777FF012269
:1014700091034548FFF780F800224FF4804142482D
:10148000FFF77AF8C820FEF75CFF012291033E487F
:10149000FFF772F80021AE2000F000FB00210846A3
:1014A00000F0FCFA0021102000F0F8FA00214020A2
:1014B00000F0F4FA0021812000F0F0FA0021CF20A2
:1014C00000F0ECFA0021A12000F0E8FA0021C82089
:1014D00000F0E4FA0021A62000F0E0FA0021A820A4
:1014E00000F0DCFA00213F2000F0D8FA0021D320E0
:1014F00000F0D4FA0021084600F0D0FA0021D520EF
:1015000000F0CCFA0021802000F0C8FA0021D92098
:1015100000F0C4FA0021F12000F0C0FA0021DA2026
:1015200000F0BCFA0021122000F0B8FA0021DB2004
:1015300000F0B4FA0021402000F0B0FA0021202091
:1015400000F0ACFA0021022000F0A8FA00218D2062
:1015500000F0A4FA0021142000F0A0FA0021A42039
:1015600000F09CFA0021A62000F098FAFFF7B2FEE6
:101570000021AF2000F092FA07B000BD30380240E1
:1015800000040240000C02400010024010B5024668
:10159000012000E050430B00A1F10104E1B2F9D1B8
:1015A00010BD000070B500242BE004F1B001C8B2FA
:1015B000002100F073FA0021084600F06FFA0021C4
:1015C000102000F06BFAFFF70DFE782000F084FA8F
:1015D000FFF73EFE402000F07FFAFFF739FE0025BE
:1015E00009E0094901EBC501085D00F075FAFFF754
:1015F0002FFE681CC5B2802DF3DBFFF713FE601CC5
:10160000C4B2082CD1DB70BD1809002008B5804693
:1016100089469246002600274BE04FB910233246F8
:1016200018218020CDF800A000F0E4F8701CC6B2AC
:10163000464522D14FF0000B1AE0012410E00025AE
:101640000AE01C4800EBC400415D601E194A02EB31
:10165000C0004155681CC5B2082DF2DB601CC4B245
:10166000902CECDBFFF79EFF0BF1010000F0FF0B6D
:101670004FEA09105845E0DC0026781CC7B2102F4D
:1016800000D10027012410E000250AE0094800EB02
:10169000C400415D601E074A02EBC0004155681C52
:1016A000C5B2082DF2DB601CC4B2902CECDBFFF756
:1016B00079FFB2E7180900202DE9FE4F074688465A
:1016C00092461C460197CDF80080082C02D14FF0BD
:1016D00006091FE02046E31704EB5373DB10214695
:1016E0004FEAE47C04EB5C7C4FEAEC0CA4EBCC0C02
:1016F000BCF1000F02D04FF0010C01E04FF0000CE4
:101700006344224604EBD27C4FEA6C0C03FB0CF3DF
:1017100003F0FF09AAF12000C6B200255EE0082C04
:1017200007D106EB46002F4901EB400010F805B049
:101730001DE00C2C07D106EB46002B4901EB800085
:1017400010F805B013E0102C05D1284800EB061066
:1017500010F805B00BE0182C07D106EBC6002449A1
:1017600001EB800010F805B001E0BDE8FE8F00201D
:1017700002901CE00BF0010028B1414638460C9A5B
:10178000FFF7C0FD09E00C9808B9012000E0002037
:10179000024641463846FFF7B5FD4FEA6B0B08F1AC
:1017A000010000F0FF080298401CC0B202900298AD
:1017B0000828DFDB781CC7B2082C0BD004EBD471EF
:1017C0004A100199791A8A4204D1019F0098083081
:1017D000C0B20090DDF80080681CC5B24D459EDBAC
:1017E00000BFC2E7821F0008AA2100081E260008C9
:1017F0000E2C00082DE9FC4F0746884616461C466D
:10180000BB46CDF804802046E21704EB5272D2109A
:101810002146E31704EB5373DB10A4EBC3030BB1B6
:10182000012300E000231A4462430092002554E0A3
:10183000102C05D12B4800EB461010F805A01BE03A
:10184000182C07D106EBC600274901EBC00010F8A1
:1018500005A011E0202C05D1244800EBC61010F89B
:1018600005A009E0402C05D1214800EB462010F8E6
:1018700005A001E0BDE8FC8F4FF000091CE00AF074
:10188000010028B1414638460B9AFFF73BFD09E0BD
:101890000B9808B9012000E0002002464146384676
:1018A000FFF730FD4FEA6A0A08F1010000F0FF0877
:1018B00009F1010000F0FF09B9F1080FDFDB781C26
:1018C000C7B2A7EB0B00A04204D15F4601980830D5
:1018D000C0B20190DDF804806D1C00988542A7D34A
:1018E00000BFC7E76A390008CA3A0008123B00087F
:1018F000923B00082DE9FF4F82B0064691461F46F5
:10190000DDE90F4A4FF0000B082C01D14FF0020B1C
:10191000002530E0781B401EC1B20A20FFF736FEDA
:10192000B9FBF0F00A21B0FBF1F201FB1208B8F1AB
:10193000000F0ED104EBD4710BEB610101FB0561CB
:10194000C8B223463022CDE900A40399FFF7B4FEC4
:101950000FE004EBD4710BEB610101FB0561C8B230
:1019600008F13001CAB22346CDE900A40399FFF77C
:10197000A3FE681CC5B2BD42CCDB06B0BDE8F08F4B
:101980002DE9FF4F05460E4617461C46DDF83890F8
:101990004FF0000A0095B3462046E21704EB52725E
:1019A000D2102146E31704EB5373DB10A4EBC303FF
:1019B0000BB1012300E000231A44D4B24FF0000819
:1019C00043E00020039039E00D9810F80A000290DF
:1019D0000AF1010A002001901DE0029800F00100C8
:1019E00028B14A4631462846FFF78CFC0AE0B9F197
:1019F000000F01D1012000E00020024631462846B8
:101A0000FFF780FC029840100290701CC6B201984B
:101A1000401CC0B2019001980828DEDB681CC5B2EA
:101A20000098281AB84204D1009D0BF1080000F07C
:101A3000FF0B5E460398401CC0B203900398B84267
:101A4000C2DB08F1010000F0FF08A045B9DBBDE8EA
:101A5000FF8F2DE9F84106460F4614461D46DDF876
:101A60001C8013E0CDF8008022782B4639463046A2
:101A7000FFF722FE082D02D1B01DC6B205E02846B0
:101A800005EBD07106EB6101CEB2641C20782028F2
:101A900002DB20787E28E5DDBDE8F88170B50546DB
:101AA0000C46FFF79FFB782000F016F8FFF7D0FBFD
:101AB0001CB1402000F010F802E0002000F00CF80B
:101AC000FFF7C6FB284600F007F8FFF7C1FBFFF75A
:101AD000A9FB70BD7047704770B50446002521E032
:101AE00004F0800028B10122D1021048FEF744FD25
:101AF00005E000224FF400610C48FEF73DFDFFF7C2
:101B0000C1FB012291020948FEF736FDFFF7BAFB3F
:101B100000224FF480610548FEF72EFD6006040E9A
:101B2000681CC5B2082DDBDB70BD0000000402405C
:101B300010B5FEF72DFD10BD10B592B00120069036
:101B4000079002200C9041050D9101210E91142166
:101B50000F9106A8FEF7ECFF0F20019002200290E3
:101B60000020039004900590042101A8FEF712FEC6
:101B70004FF44040FEF79CFDFEF764FF4FF47A718E
:101B8000B0FBF1F42046FFF7EBF90420FFF7D4F99E
:101B900000221146501EFEF738FD12B010BD0000A5
:101BA0000348006840F47000014908607047000075
:101BB00088ED00E010B504462068C06820F04000C1
:101BC0002168C86094F83900322803D1222084F8B3
:101BD000390002E0012084F839002046FFF7FEFAC0
:101BE000002010BD70B50446002694F83960222EFE
:101BF00001D0322E52D1A068B0F5805F13D1A56A12
:101C0000206940B920684068C0F308002880A06AB5
:101C1000801CA06219E020684068C0B22880A06AD9
:101C2000401CA06211E0206938B920684068C1B248
:101C3000A26A501CA062117007E02068406800F0A2
:101C40007F01A26A501CA0621170E08D401E80B21C
:101C5000E08508BB2068C06820F020002168C860CB
:101C600094F83900322803D1122084F839000EE0AC
:101C70002068C06820F480702168C86020684069CE
:101C800020F0010021684861012084F839002046D5
:101C9000FFF760FA002070BD0020FCE70220FAE7A1
:101CA00010B50146002391F83930122B01D0322BA8
:101CB0002CD18868B0F5805F0FD10A6A1088C0F314
:101CC00008000C686060086918B9086A801C08621E
:101CD00009E0086A401C086205E00C6A601C0862A2
:101CE00020780C686060C88C401E80B2C88458B9E7
:101CF0000868C06820F080000C68E0600868C06870
:101D000040F040000C68E060002010BD0220FCE7BD
:101D100010B500240C48FFF742F900BF01E0641C35
:101D200000BF0948FFF737F90128F8D100BF0024A8
:101D300001E0641C00BF012204490348FFF7C7F912
:101D40000028F6D100BF10BDD80800200E080020E2
:101D500000BFFEE700BF70471CB52024FEF720FC43
:101D6000FFF7EAFEFFF70AFB002221027048FEF7A8
:101D700003FCDBE001206F4940238022CDE9001005
:101D800000210846FFF7FCFDFFF70CFC4FF4FA704A
:101D9000FEF7D7FAFFF79EFA012010230022114622
:101DA00000901046FFF726FD012010230246002177
:101DB00000901220FFF71EFD0120102302220021B7
:101DC00000902420FFF716FD01201023032200219C
:101DD00000903620FFF70EFD012010230422002181
:101DE00000904820FFF706FD012010230522002166
:101DF00000905A20FFF7FEFC01201023062200214C
:101E000000906C20FFF7F6FC012010234AA219462F
:101E100000900820FFF71DFE012010234AA2202178
:101E200000901420FFF715FE0120102349A2302155
:101E300000900020FFF70DFE0120102347A2302163
:101E400000903F20FFF705FE01201023224630219D
:101E500000900846FFF730FC601CC4B27E2C00DD09
:101E600020240120102103232246CDE90010302137
:101E70006720FFF73FFDFFF795FB4FF4FA70FEF781
:101E800060FAFFF727FA0120102300221146009084
:101E90001046FFF7AFFC01201823002211460090E6
:101EA0001020FFF7A7FC012020230022142100901E
:101EB0001820FFF79FFC01204023002211460090CC
:101EC0001846FFF797FCFFF76DFB4FF4FA70FEF72B
:101ED00038FAFFF7FFF90120082322A20021009021
:101EE0000846FFF7B6FD01200C231EA20821009032
:101EF0000020FFF7AEFD012010231AA2142100904C
:101F00000020FFF7A6FD0120182316A2242100902F
:101F10000020FFF79EFDFFF745FB4FF4FA70FEF738
:101F200010FA012204210B20FFF770FB22E70000CA
:101F3000000C0240000000205A484F4E474A494ECC
:101F4000475955414E000000323031342F30352F83
:101F50003031000041534349493A0000434F444562
:101F60003A000000414243004FF04070E1EE100A99
:101F70007047000000000102030401020304060789
:101F800008090000000000000000002F0000000011
:101F90000700070000147F147F1400242A7F2A12F0
:101FA00000626408132300364955225000000503DF
:101FB000000000001C224100000041221C0000140F
:101FC000083E08140008083E0808000000A0600051
:101FD00000080808080800006060000000201008E1
:101FE0000402003E5149453E0000427F400000424D
:101FF00061514946002141454B31001814127F10B0
:10200000002745454539003C4A49493000017109DE
:10201000050300364949493600064949291E000092
:102020003636000000005636000000081422410039
:102030000014141414140000412214080002015169
:10204000090600324959513E007C1211127C007F72
:1020500049494936003E41414122007F4141221C0D
:10206000007F49494941007F09090901003E414972
:10207000497A007F0808087F0000417F4100002066
:1020800040413F01007F08142241007F4040404012
:10209000007F020C027F007F0408107F003E414158
:1020A000413E007F09090906003E4151215E007F43
:1020B000091929460046494949310001017F0101BA
:1020C000003F4040403F001F2040201F003F40385D
:1020D000403F00631408146300070870080700619C
:1020E0005149454300007F41410000552A552A557A
:1020F000000041417F000004020102040040404012
:102100004040000001020400002054545478007F35
:102110004844443800384444442000384444487F0C
:1021200000385454541800087E0901020018A4A471
:10213000A47C007F080404780000447D4000004037
:1021400080847D00007F102844000000417F400013
:10215000007C04180478007C0804047800384444A7
:10216000443800FC242424180018242418FC007C83
:102170000804040800485454542000043F444020FC
:10218000003C4040207C001C2040201C003C403093
:10219000403C004428102844001CA0A0A07C00441F
:1021A00064544C441414141414140000000000006F
:1021B0000000000000000000FC0000000000020021
:1021C0000000000C020C020000000000000090D093
:1021D000BCD0BC900003000300001824FE448C0017
:1021E0000302070201001824D8B04C80000300014C
:1021F0000201C038E438E0000102020102020806D0
:1022000000000000000000000000000000F80402D0
:10221000000000010204000204F8000000040201B2
:1022200000009060F8609000000001000000202095
:10223000FC20200000000100000000000000000061
:1022400008060000000020202020200000000000E0
:1022500000000000000000000002000000000080FC
:10226000601C0200040300000000F8040404F800ED
:102270000102020201000008FC000000000203024B
:10228000000018844424180003020202020008041B
:102290002424D80001020202010040B088FC800022
:1022A0000000000302003C242424C40001020202B6
:1022B0000100F824242CC0000102020201000C04D9
:1022C000E41C0400000003000000D8242424D800EB
:1022D00001020202010038444444F80000030202F3
:1022E00001000000100000000000020000000000DB
:1022F00020000000000006000000002050880402BA
:1023000000000000010290909090900000000000FA
:1023100000000002048850200002010000001804A0
:10232000C4241800000002000000F804E494F8003F
:1023300001020202020000E09CF0800002030000A3
:10234000030204FC2424D800020302020100F80462
:1023500004040C0001020202010004FC0404F80061
:1023600002030202010004FC24740C0002030202B6
:10237000030004FC24740C00020302000000F008B7
:102380000444CC4000010202010004FC2020FC04B3
:102390000203000003020404FC040400020203021E
:1023A0000200000404FC040406040403000004FC0E
:1023B00024D00C0402030200030204FC0400000009
:1023C000020302020203FC3CC03CFC0003000300C9
:1023D000030004FC30C4FC04020302000300F80400
:1023E0000404F80001020202010004FC2424180085
:1023F000020302000000F8848404F80001020207CE
:10240000050004FC2464980002030200030218245F
:1024100024448C000302020201000C04FC040C00A2
:1024200000020302000004FC0000FC0400010202A0
:102430000100047C80E01C040000030000001CE09C
:102440003CE01C00000300030000049C609C0400AE
:10245000020300030200041CE01C0400000203024B
:1024600000000C84641C040002030202030000004C
:10247000FE020200000007040400000E30C000004D
:10248000000000010200000202FE00000004040738
:102490000000000402040000000000000000000032
:1024A00000000000080808080808000002000000FA
:1024B0000000000000000040A0A0C00000010202D7
:1024C000030204FC2020C00000030202010000C03F
:1024D0002020600000010202020000C02024FC0055
:1024E00000010202030200C0A0A0C000000102021D
:1024F00002000020F824240400020302020000402D
:10250000A0A0602000070A0A0A0404FC2020C000E2
:102510000203020003020020E400000000020302A4
:102520000000000020E4000008080807000004FC88
:1025300080E020200203020003020404FC000000EB
:10254000020203020200E020E020C00003000300BA
:10255000030020E02020C00002030200030200C0AC
:102560002020C00000010202010020E02020C00065
:10257000080F0A02010000C02020E0000001020A4A
:102580000F0820E04020200002030200000000604D
:10259000A0A020000002020203000020F82000009A
:1025A00000000102020020E00020E0000001020221
:1025B000030220E020806020000003010000608012
:1025C000E0806000000300030000206080602000C5
:1025D00002030003020020E02080602008080701B9
:1025E00000000020A06020000002030202000000A2
:1025F00020DE0200000000070400000000FF0000D1
:102600000000000F00000002DE20000000040700B0
:1026100000000201020404020000000000000000AB
:1026200000000000000000000000000000000000AA
:1026300000F800000000000000333000000000102F
:102640000C06100C0600000000000000000040C056
:102650007840C0784000043F04043F040400007048
:1026600088FC08300000001820FF211E0000F00840
:10267000F000E018000000211C031E211E0000F0E5
:102680000888700000001E2123241927211010162D
:102690000E0000000000000000000000000000002C
:1026A00000E01804020000000007182040000002AB
:1026B0000418E0000000004020180700000040401F
:1026C00080F0804040000202010F01020200000081
:1026D00000F0000000000101011F010101000000E5
:1026E00000000000000080B070000000000000004A
:1026F00000000000000000010101010101010000D3
:102700000000000000000030300000000000000069
:10271000000080601804006018060100000000E05E
:1027200010080810E000000F102020100F0000100B
:1027300010F8000000000020203F20200000007062
:10274000080808887000003028242221300000305A
:102750000888884830000018202020110E00000052
:10276000C02010F8000000070424243F240000F8D3
:102770000888880808000019212020110E0000E0B8
:10278000108888180000000F112020110E0000385A
:102790000808C83808000000003F00000000007072
:1027A000880808887000001C222121221C0000E0FB
:1027B00010080810E0000000312222110F00000074
:1027C00000C0C00000000000003030000000000029
:1027D0000080000000000000806000000000000099
:1027E0008040201008000001020408102000404032
:1027F0004040404040000404040404040400000875
:102800001020408000000020100804020100007029
:1028100048080808F0000000003036010000C03011
:10282000C828E810E0000718272423140B00000034
:10283000C038E0000000203C23020227382008F8BE
:10284000888888700000203F202020110E00C030B2
:10285000080808083800071820202010080008F889
:1028600008080810E000203F202020100F0008F882
:102870008888E8081000203F20202320180008F84E
:102880008888E8081000203F200003000000C030C6
:1028900008080838000007182020221E020008F847
:1028A00008000008F808203F210101213F2000080E
:1028B00008F8080800000020203F20200000000049
:1028C0000808F8080800C08080807F00000008F831
:1028D00088C028180800203F20012638200008F86A
:1028E000080000000000203F20202020300008F8D1
:1028F000F800F8F80800203F003F003F200008F8EB
:1029000030C00008F808203F200007183F00E01002
:1029100008080810E0000F10202020100F0008F811
:1029200008080808F000203F210101010000E01024
:1029300008080810E0000F18242438504F0008F849
:10294000888888887000203F2000030C30200070A9
:102950008808080838000038202121221C001808A7
:1029600008F8080818000000203F2000000008F8C0
:1029700008000008F808001F202020201F00087809
:10298000880000C83808000007380E010000F80869
:1029900000F80008F800033C0700073C0300081893
:1029A00068808068180820302C03032C30200838F9
:1029B000C800C83808000000203F200000001008B0
:1029C0000808C838080020382621202018000000F8
:1029D00000FE020202000000007F40404000000CA8
:1029E00030C000000000000000010638C0000002F6
:1029F0000202FE000000004040407F000000000096
:102A000004020202040000000000000000000000B8
:102A100000000000000080808080808080800002B4
:102A200002040000000000000000000000000000A0
:102A30008080808000000019242222223F2008F894
:102A4000008080000000003F112020110E000000D7
:102A5000008080800000000E112020201100000066
:102A600000808088F800000E112020103F20000018
:102A7000808080800000001F22222222130000801C
:102A800080F0888888180020203F20200000000067
:102A9000808080808000006B94949493600008F89C
:102AA000008080800000203F210000203F20008027
:102AB0009898000000000020203F20200000000027
:102AC00000809898000000C08080807F000008F897
:102AD000000080808000203F24022D30200000086C
:102AE00008F8000000000020203F20200000808027
:102AF000808080808000203F20003F20003F808039
:102B0000008080800000203F210000203F20000046
:102B1000808080800000001F202020201F008080F7
:102B200000808000000080FFA12020110E00000026
:102B3000008080808000000E112020A0FF80808017
:102B400080008080800020203F21200001000000C4
:102B50008080808080000033242424241900008099
:102B600080E0808000000000001F202000008080A6
:102B7000000000808000001F202020103F20808067
:102B800080000080808000010E30080601008080F7
:102B90000080008080800F300C030C300F0000801C
:102BA0008000808080000020312E0E312000808047
:102BB00080000080808080818E7018060100008077
:102BC0008080808080000021302C22213000000095
:102BD0000000807C020200000000003F4040000036
:102BE0000000FF00000000000000FF0000000002E5
:102BF000027C800000000040403F00000000000612
:102C000001010202040400000000000000000000B6
:102C100000000000000000000000000000000000B4
:102C200000000000000000000000000000000000A4
:102C300000000000000000F0F0F0000000000000C4
:102C4000000000017F010000000000000000001CE7
:102C50001C1C0000000000008060301C8C60301CD8
:102C60000C00000000000000000000000000000058
:102C700000000000000000000000000000E0000074
:102C8000000000E000000086E69F86868686E69FBC
:102C9000860000011F01010101011F010100000068
:102CA00080C06020F820E0C00000000003070C187E
:102CB000FF70E18100000000070F10107F100F0768
:102CC00000008060206080000000E02000000F30E5
:102CD00020309F70DC371030C0000000100E030061
:102CE0000718101807000000C02020E0C0000000F6
:102CF000000080E01F38E88703C43C040000070F91
:102D00001810100B070D1010080000808C4C3800B4
:102D100000000000000000000000000000000000B3
:102D200000000000000000000000000000000000A3
:102D30000000000080E0300804000000000000FEF9
:102D4000FF0100000000000000000000030F182039
:102D5000400000040830E080000000000000000097
:102D6000000001FFFE0000000000004020180F03DB
:102D7000000000000000000000000000C000000093
:102D80000000004266663C18FF183C666642000080
:102D90000000000003000000000000000000000030
:102DA000800000000000001010101010FF10101024
:102DB00010100000000000000300000000000000F0
:102DC0000000000000000000000000000000000003
:102DD00000000000000000808C4C38000000000063
:102DE00000000000000000000000000000000010D3
:102DF0001010101010101010100000000000000043
:102E000000000000000000000000000000000000C2
:102E100000000000000000000000000000000000B2
:102E20001C1C1C000000000000000000000000004E
:102E30000000E0380C000000000080701C0300005F
:102E400000000060380E01000000000000000000DB
:102E500080C060202060C080000000FEFF010000F4
:102E6000000001FFFE000001070E181010180E07E9
:102E700001000000808080C0E00000000000000031
:102E8000000000FFFF000000000000001010101FF5
:102E90001F10101000000080402020202060C08003
:102EA000000000030300804020381F070000001CC2
:102EB0001A1918181818181F00000080C0202020A8
:102EC00060C080000000000303001010182FE7808E
:102ED000000000070F10101010180F07000000006E
:102EE00000000000C0E0F000000000C0B088868153
:102EF00080FFFF808000000000000010101F1F10E6
:102F000010000000E0606060606060600000000031
:102F10003F1008080818F0E0000000070B10101020
:102F2000101C0F030000000080C040202020E0C0E3
:102F3000000000FCFF211008080818F0E000000164
:102F4000070C18101010080F03000000C0E06060AC
:102F5000606060E06000000003000000E01807000F
:102F6000000000000000001F1F00000000000080A3
:102F7000C0602020202060C080000087EF2C18183F
:102F8000303068CF830000070F0810101010180FA2
:102F900007000000C0C020202020C0800000001FCB
:102FA0003F604040402010FFFE0000000C1C10104D
:102FB00010080F03000000000000000000000000E7
:102FC000000000000000000E0E0E000000000000D7
:102FD0000000001C1C1C000000000000000000009D
:102FE00000000000000000000000000C0C000000C9
:102FF0000000000000000058380000000000000041
:1030000000000000008040201000000010284482D2
:1030100001000000000000000000000001020408A0
:10302000100000000000000000000000000000840C
:1030300084848484848484848400000000000000EC
:103040000000000000000000102040800000000090
:103050000000000000000000018244281000000071
:103060001008040201000000000000C02020101021
:10307000101030E0C0000003030000F010080C073F
:103080000300000000001C1C1C00000000000000E9
:1030900000C0406020202040C00000FCFF01F00E76
:1030A00003C1FE03807F0001070E081111101109F2
:1030B00004020000000080E0E000000000000000CA
:1030C000807C4340477FF880000010181F100000EC
:1030D0000000131F1C1020E0E02020202060C08092
:1030E000000000FFFF10101010182FE78000101FC5
:1030F0001F1010101010180F0700000080C0402093
:1031000020202060E00000FCFF0100000000000023
:1031100001000001070E181010100804030020E041
:10312000E02020202040C080000000FFFF000000C1
:10313000000001FFFE00101F1F10101018080E07DE
:10314000010020E0E020202020202060800000FFFF
:10315000FF101010107C00000000101F1F10101036
:1031600010101018060020E0E020202020206060D1
:10317000800000FFFF101010107C00000100101FE5
:103180001F100000000000000000000080C0602050
:10319000202040E0000000FCFF0100004040C0C1D2
:1031A00040400001070E181010100F0F000020E023
:1031B000E0200000000020E0E02000FFFF101010E1
:1031C000101010FFFF00101F1F1000000000101F44
:1031D0001F100000202020E0E02020200000000040
:1031E000000000FFFF000000000000001010101F92
:1031F0001F101010000000000000202020E0E02040
:10320000202000000000000000FFFF000000006020
:10321000E0808080C07F3F00000020E0E0200000D0
:1032200020A06020200000FFFF30187CE3C00000D9
:103230000000101F1F10000001131F1C181020E0B9
:10324000E020000000000000000000FFFF00000080
:10325000000000000000101F1F10101010101018A8
:10326000060020E0E0E000000000E0E0E02000FFD9
:10327000013FFEC0E01E01FFFF00101F1000031FF2
:103280000300101F1F1020E0E0C00000000000201D
:10329000E02000FF0003071C78E08000FF00101F03
:1032A000100000000000030F1F00000080C060201D
:1032B0002060C080000000FEFF010000000000FF51
:1032C000FE000001070E181010180C07010020E086
:1032D000E0202020202060C0800000FFFF20202070
:1032E0002020301F0F00101F1F10000000000000E2
:1032F0000000000080C060202060C080000000FE50
:10330000FF010000000000FFFE000001070E111188
:10331000133C7C67210020E0E0202020202060C0BA
:10332000800000FFFF101030F0D0080F0700101FC2
:103330001F10000000030F1C10100080C060202030
:1033400020204040E00000070F0C1818303060E0EB
:103350008100001F0C0810101010180F070080606B
:10336000202020E0E020202060800100000000FFFD
:10337000FF000000000100000000101F1F100000EF
:10338000000020E0E020000000000020E02000FF1E
:10339000FF00000000000000FF0000070F181010E1
:1033A0001010100807002060E0E02000000020E07E
:1033B00060200000077FF88000807C030000000090
:1033C0000000071F1C070000000020E0E02000E0D4
:1033D000E0200020E0200007FFF8E01FFFFCE01FD6
:1033E00000000000031F0300011F03000000002075
:1033F00060E0A0000020E0602000000000038F7C5F
:10340000F8C6010000000010181E130001171F1855
:1034100010002060E0E02000000020E060200000BC
:1034200001073EF8E0180700000000000010101F20
:103430001F101000000000806020202020A0E0E08D
:10344000200000000000C0F03E0F0300000000104C
:103450001C1F17101010101806000000000000FCC0
:103460000404040404000000000000FF0000000049
:10347000000000000000007F40404040400000008D
:1034800010E0000000000000000000000000031C2D
:1034900060800000000000000000000000030C70CD
:1034A000800000000404040404FC0000000000008C
:1034B0000000000000FF000000000000404040400D
:1034C000407F0000000000000010080C040C0810F1
:1034D00000000000000000000000000000000000EC
:1034E00000000000000000000000000000000000DC
:1034F00000000000000000000000000000000000CC
:1035000000008080808080808080808080800000BB
:103510000004040808000000000000000000000093
:10352000000000000000000000000000000000009B
:10353000000000000000000000000000000000008B
:1035400098D844642424FCF80000000F1F181010C1
:1035500010081F1F10180020E0F0000000000000FD
:1035600000000000FFFF180804040CF8F000000041
:103570001F0F18101010180F0300000000000000AB
:1035800000000000000000E0F8180404043C3800CB
:10359000000000030F0C10101010080600000000BF
:1035A000000000000020E0F0000000E0F81C04042F
:1035B0000408FFFF000000030F18101010081F0F71
:1035C00008000000000000000000000000000000F3
:1035D000E0F8484444444C7870000000030F0C1895
:1035E0001010100804000000000080C0602020E0DF
:1035F000C00000040404FFFF0404040400000000F1
:1036000010101F1F1010100000000000000000002C
:10361000000000000000000070F88C04048CF874B6
:10362000040C007076CF8D8D8D89C87870000020D5
:10363000E0F000000000000000000000FFFF0804B0
:103640000404FCF8000000101F1F100000101F1FD2
:10365000100000000000006060000000000000009A
:10366000040404FCFC000000000000001010101F07
:103670001F1010100000000000000000006060003B
:10368000000000000000040404FCFC000000000036
:10369000C0C08080C07F3F0000000020E0F000003C
:1036A0000000000000000000FFFF80C0F41C0404C4
:1036B000000000101F1F1100031F1C10100000004D
:1036C000202020E0F000000000000000000000FFCB
:1036D000FF000000000000001010101F1F1010104D
:1036E000000000000000000000000000000004FCDA
:1036F000FC0804FCFC0804FCFC00101F1F10001F49
:103700001F10001F1F10000000000000000000003C
:1037100000000004FCFC08080404FCF80000001091
:103720001F1F100000101F1F1000000000000000ED
:1037300000000000000000E0F0180C04040C18F079
:10374000E00000030F0C101010100C0F030000001D
:10375000000000000000000000000004FCFC080461
:1037600004040CF8F0000080FFFF889010101C0F7C
:10377000030000000000000000000000000000E066
:10378000F81C04040408F8FC000000030F181010D3
:103790009088FFFF80000000000000000000000093
:1037A0000000040404FCFC100804040C0C001010BD
:1037B000101F1F101010000000000000000000008B
:1037C00000000000000000003078CCC48484840C29
:1037D0001C0000001E1810101011190F0600000028
:1037E000000000C000000000000000040404FFFF0F
:1037F000040404000000000000000F1F1010100C53
:1038000000000000000000000000000000000004B4
:10381000FCFE00000004FCFE000000000F1F18105A
:1038200010081F0F0800000000000000000000004A
:10383000000000040C3CFCC40000C43C0C0400006C
:103840000000010F1E0E010000000000000000003B
:10385000000000000000043CFCC400E47CFC848008
:103860007C040000071F070000071F07000000007E
:10387000000000000000000000000004041C7CE4C4
:10388000C0341C0404000010101C1601131F1C1867
:103890001000000000000000000000000000000414
:1038A0000C3CFCC400C43C0404000000C080C137D0
:1038B0000E010000000000000000000000000000F9
:1038C000000000001C0404C4F47C1C040000000080
:1038D000101C1F17111010180E000000000000002F
:1038E00000F80C04000000000000001028EF0000A9
:1038F0000000000000000000003F604000000000E9
:1039000000000000FF0000000000000000000000B8
:10391000FF0000000000000000000000FF000000A9
:1039200000000000040CF80000000000000000008F
:103930000000EF28100000000000000040603F0081
:1039400000000000000000180602020408102020F9
:10395000300800000000000000000000000000002F
:10396000000000000000000000000000F010101037
:1039700010FF10101010F000000000000F040404ED
:1039800004FF040404040F0000004040405F55554C
:1039900055755555555F404040000040200F09497E
:1039A00089790909090F2040000000FE02424ACA35
:1039B0004A4ACA4A4A4202FE000000FF40504C43B5
:1039C00040404F50505C40FF00000000F88888885D
:1039D00088FF88888888F800000000001F08080811
:1039E000087F888888889F80F00080828282828217
:1039F00082E2A2928A86828080000000000000405D
:103A0000807F0000000000000000101010FF1090E8
:103A100008888888FF88888808000444827F01809D
:103A20008040432C1028468180000010101010D0D8
:103A300030FF30D0121C10100000100804020100EA
:103A400000FF000001020408100004040484E43CA8
:103A50002724242424E40404040004020100FF09B0
:103A600009090949897F0000000000FE225A8600EA
:103A7000FE9292929292FE00000000FF040807005E
:103A8000FF4020030C142241400000804020180613
:103A900080000718204080000000010020702826C8
:103AA000212020243860000101000010129292921F
:103AB000929292121202FE0000000000003F1010CD
:103AC00010103F0040807F000000000000C0808098
:103AD0008080808080FC84808080808080C0C00066
:103AE0000000000000FF7F404040404040FF404059
:103AF0004040404040FF7F00000000000000000008
:103B000000000000007F70000000000000000000C6
:103B100000000000000000000000000000000000A5
:103B200000FCF800000000000000000000000000A1
:103B3000000000000000FFFE020202020202020278
:103B400002FFFF020202020202020202FF03000061
:103B50000000000000001F1F040404040404040407
:103B600004FFFF0404040404040404041F00000010
:103B70000000000000000000000000000000000045
:103B8000007F3F0000000000000000000000000077
:103B90000000000000000000000000000000000025
:103BA000000000000000000000000000000000F81D
:103BB000F8F0F0702000000000000000000000009D
:103BC00000000000000000000000000000000000F5
:103BD0000000000000000000000080000000000065
:103BE000000000000000000000000000000000FFD6
:103BF000FFFFFF00000000000000000000000000C8
:103C000000000000000080800000000000000000B4
:103C10000000000000000000000000FFFFFE06069C
:103C2000060606060606060606060606060606FF3B
:103C3000FFFFFF0606060606060606060606060639
:103C40000606060606FFFFFFFF0702000000000051
:103C50000000000000000000000000FFFFFF000067
:103C6000000000000000000000000000000000FF55
:103C7000FFFFFF0000000000000000000000000047
:103C80000000000000FFFFFFFF0000000000000038
:103C90000000000000000000000000FFFFFF1818F7
:103CA000181818181818181818181818181818FFAD
:103CB000FFFFFF18181818181818181818181818CF
:103CC0001818181818FFFFFFFF0000000000000080
:103CD00000000000000000000000020101000000E0
:103CE000000000000000000000000000000000FFD5
:103CF000FFFFFF00000000000000000000000000C7
:103D000000000000000101000000000000000000B1
:103D100000000000000000000000000000000000A3
:103D2000000000000000000000000000000000FF94
:103D3000FFFFFF0000000000000000000000000086
:103D40000000000000000000000000000000000073
:103D50000000000000000000000000000000000063
:103D60000000000000000000000000000000001F34
:103D70001F0F0F0000000000000000000000000006
:103D80000000000000000000000000000000000033
:103D900000000000B43D00080000002010080000F2
:103DA000E80100089C3F000810080020E80B000014
:103DB0004C02000840120003050911FF118905C3D8
:103DC00000E000F000F8000100083A4428FF11AAC2
:103DD000440001500B830138448292927401831194
:103DE00020087C44FF017D7D7D04410540047D0168
:103DF000FF6E920102613F033B01017E81419149C7
:103E0000F20101011BC230083F3F0303F31311010C
:103E1000100601F1116181402005816111F14733E4
:103E2000414107200401C12120A321C114311931CE
:103E300037040736D33303033F3F426006E0E00018
:103E4000007FA8127FBF40040618060A1008000071
:103E500040407F4040A410041F204001A3201F14B5
:103E60003300600E6004300C03460534C2100407B2
:103E7000070601700904040484444444840780054F
:103E80000484C4041501120A71112140073D07077B
:103E9000C9200F0000101814121100000F1010108C
:103EA0000F0F131F1015600D081012120D000018CF
:103EB00000000D120A51295130015E0152800101AA
:103EC0003B4514047F030CA915DE1C0538545458D7
:103ED0002503080A2004047800003C40407C2000B0
:103EE000092CFFAAAAAA280800FF6810062649493B
:103EF0004932101005020408100F0D6F00049D01D7
:103F0000040D9D0004156343F80801240500F8180A
:103F100060E82404806018235720202923E0102122
:103F2000A310E01449B4313908043C886818630DC3
:103F300015FF037DEA039DFF0371144DFF031D066A
:103F4000043D2E040942E91C0640202020C04A04FA
:103F5000110721EA3E40520452600E811871295126
:103F6000070D4769031C060C0A0A090C0004156BAF
:103F70002D00042004080F081510050809090E0774
:103F80001D180430050909090F0A512951070DFFB1
:0C3F900000040D220004B724F4290000F6
:04000005080001AD41
:00000001FF
