:020000040800F2
:10000000800700204D0200089B1100089311000892
:100010009711000849030008491400080000000077
:10002000000000000000000000000000D7110008E0
:100030004D03000800000000D511000891120008CF
:1000400067020008670200086702000867020008EC
:1000500067020008670200086702000867020008DC
:1000600067020008670200086702000867020008CC
:1000700067020008670200086702000867020008BC
:1000800067020008670200086702000867020008AC
:10009000670200086702000867020008670200089C
:1000A000670200086702000867020008670200088C
:1000B000670200086702000867020008670200087C
:1000C000670200086702000867020008670200086C
:1000D00067020008091400086702000867020008A8
:1000E000670200086702000867020008670200084C
:1000F000670200086702000867020008670200083C
:10010000670200086702000867020008670200082B
:10011000670200086702000867020008670200081B
:10012000670200086702000867020008670200080B
:1001300067020008670200086702000867020008FB
:1001400067020008670200086702000867020008EB
:1001500067020008670200086702000867020008DB
:1001600067020008670200086702000867020008CB
:10017000670200086702000867020008000000002C
:1001800067020008670200086702000867020008AB
:10019000670200086702000867020008670200089B
:1001A00000000000000000006702000800F002F8F4
:1001B00000F03CF80AA090E8000C82448344AAF1C5
:1001C0000107DA4501D100F031F8AFF2090EBAE8C3
:1001D0000F0013F0010F18BFFB1A43F0010318477B
:1001E0005013000070130000103A24BF78C878C183
:1001F000FAD8520724BF30C830C144BF04680C602D
:10020000704700000023002400250026103A28BF74
:1002100078C1FBD8520728BF30C148BF0B60704778
:100220001FB501F077F91FBD10B510BD00F033F810
:100230001146FFF7F5FF01F045F900F051F803B45E
:10024000FFF7F2FF03BC01F001F900000948804705
:1002500009480047FEE7FEE7FEE7FEE7FEE7FEE7A8
:10026000FEE7FEE7FEE7FEE704480549054A064BC0
:100270007047000099120008AD01000880010020BD
:100280008007002080030020800300207047704713
:10029000704770477047754600F028F8AE46050075
:1002A0006946534620F00700854618B020B5FFF791
:1002B000DBFFBDE820404FF000064FF000074FF095
:1002C00000084FF0000B21F00701AC46ACE8C00974
:1002D000ACE8C009ACE8C009ACE8C0098D4670477D
:1002E0000446AFF300802046FFF7A9FF004870479F
:1002F0001C01002000B587B000BF0020019010480D
:10030000006840F010000E4908600846006800F0E0
:100310001000019000BF00BF4FF410400290012078
:10032000039004900320059002A9064800F010F8FD
:1003300000224FF41041034800F018F907B000BD47
:10034000303802400010024000BFFEE77047000056
:10035000F8B502460B460025002400200021E6E007
:10036000012606FA01F51E6806EA0504AC4273D1BF
:100370005E68022E02D05E68122E13D1CF0802F101
:10038000200656F827004E07F70E0F26BE40B04352
:100390004F07FF0E1E69BE403043CF0802F1200612
:1003A00046F8270010684F000326BE40B0431E7970
:1003B00006F003064F00BE40304310605E68012E19
:1003C00008D05E68022E05D05E68112E02D05E68ED
:1003D000122E13D190684F000326BE40B0434F0049
:1003E000DE68BE4030439060506801268E40B043C6
:1003F0001E79C6F300168E4030435060D0684F001F
:100400000326BE40B0434F009E68BE403043D060DC
:100410005E6806F08056B6F1805FA8D100BF002666
:100420000096454E366846F48046434F3E603E4651
:10043000366806F48046009600BF00BF3F4E8F0826
:1004400056F827008E07370F0F26BE40B0433C4EAC
:10045000B24202D100262EE068E03A4EB24201D10B
:10046000012628E0384EB24201D1022623E0374E61
:10047000B24201D103261EE0354EB24201D104261C
:1004800019E0344EB24201D1052614E0324EB24298
:1004900001D106260FE0314EB24201D107260AE013
:1004A0002F4EB24201D1082605E02E4EB24201D1B4
:1004B000092600E00A268F073F0FBE4030431F4E3B
:1004C0008F0846F82700284E3068A0435E6806F47F
:1004D0008036B6F5803F00D12043234E3060361D74
:1004E0003068A0435E6806F40036B6F5003F00D1E0
:1004F00020431D4E361D3060361D3068A0435E68B7
:1005000006F48016B6F5801F00D12043164E08363B
:100510003060361D3068A0435E6806F40016B6F5FC
:10052000001F00D12043104E0C363060491C1029AA
:10053000FFF416AFF8BD000044380240083801400F
:10054000000002400004024000080240000C02408B
:10055000001002400014024000180240001C02403B
:100560000020024000240240003C01400AB18161A9
:1005700001E00B0483617047014800687047000088
:100580000400002002480068401C014908607047D0
:100590000400002010B50D48006840F400700B49BD
:1005A00008600846006840F48060086008460068FB
:1005B00040F480700860052000F060F80F2000F023
:1005C00007F800F017F8002010BD0000003C0240C2
:1005D00070B5044600F010FA4FF47A71B0FBF1F5F3
:1005E000284600F097FC00222146501E00F007F834
:1005F000002070BD08B50020009000BF08BD2DE9A7
:10060000F05F80460D461646002700F0C7FD0746FE
:1006100039462A46334601F00700C0F1070ABAF10D
:10062000040F02D94FF0040A01E0C0F1070AD146D5
:1006300000F1040ABAF1070F02D24FF0000A01E0FC
:10064000A0F1030AD4464FF0010A0AFA09FAAAF106
:10065000010A0AEA020A0AFA0CFA4FF0010B0BFA35
:100660000CFBABF1010B0BEA030B4AEA0B0421462E
:10067000404600F09BFDBDE8F09F000000BF00F089
:100680000702064B19684FF6FF031940044B0B4352
:1006900043EA0221014B196000BF70470CED00E0F6
:1006A0000000FA0538B5002400BF00200090234860
:1006B000006840F08050214908600846006800F05A
:1006C0008050009000BF00BF0120010491FAA1F109
:1006D000B1FA81F11A4A42F82100FFF74DFF0446B2
:1006E00007E0FFF749FF001BB0F57A7F01D903202F
:1006F00038BD1448406800F48030B0F5803FF0D138
:100700000120410491FAA1F1B1FA81F10C4A42F8B9
:100710002100FFF731FF044607E0FFF72DFF001B24
:10072000B0F57A7F01D90320E2E70648406800F47B
:100730000030B0F5003FF0D10020D9E7403802404A
:1007400000000E420070004070B504460E460025C1
:10075000A748006800F00F00B0426FD2A4490E70A5
:100760000846006800F00F00B04201D0012070BDC3
:10077000207800F00200022807D19E48006820F08F
:10078000F000A16808439B490860207800F0010050
:1007900000283ED06068012807D1964808380068D4
:1007A000C0F34040B8B90120E1E76068022802D0F8
:1007B0006068032807D18F4808380068C0F340609C
:1007C00048B90120D3E78B4808380068C0F34000DF
:1007D00008B90120CBE78748006820F00300616872
:1007E000084384490860FFF7C7FE05466068012892
:1007F00010D108E0FFF7C0FE401B41F2883188426B
:1008000001D90320B3E77B48006800F00C000428FE
:10081000F0D1CDE06068022811D108E0FFF7ACFE0E
:10082000401B41F28831884201D903209FE771487B
:10083000006800F00C000828F0D1B9E024E06068FE
:10084000032810D108E0FFF797FE401B41F28831E2
:10085000884201D903208AE76648006800F00C004E
:100860000328F0D1A4E008E0FFF786FE401B41F228
:100870008831884201D9032079E75E48006800F09A
:100880000C000028F0D193E0207800F0020002284C
:1008900007D15848006820F0F000A1680843554986
:1008A0000860207800F00100002877D060680128F7
:1008B00007D1504808380068C0F34040B8B901205B
:1008C00055E76068022802D06068032807D14948CC
:1008D00008380068C0F3406048B9012047E7454840
:1008E00008380068C0F3400008B901203FE74148DC
:1008F000006820F00300616808433E490860FFF784
:100900003BFE05466068012810D108E0FFF734FE81
:10091000401B41F28831884201D9032027E735483E
:10092000006800F00C000428F0D137E0606802286D
:1009300010D108E0FFF720FE401B41F288318842C9
:1009400001D9032013E72B48006800F00C000828A9
:10095000F0D123E06068032810D108E0FFF70CFE17
:10096000401B41F28831884201D90320FFE621482B
:10097000006800F00C000328F0D10FE008E0FFF75A
:10098000FBFD401B41F28831884201D90320EEE68D
:100990001848006800F00C000028F0D114490E70CF
:1009A0000846006800F00F00B04201D00120DEE6EA
:1009B000207800F00400042807D10E48006820F4D5
:1009C000E050E16808430B490860207800F0080017
:1009D000082808D10748006820F46040216940EAEF
:1009E000C100044908600F20FFF7F2FD0020BEE6B9
:1009F000003C02400838024010B500F019F80949DF
:100A0000096801F0F001F02292FAA2F2B2FA82F241
:100A1000D140054A515CC840044908600846006856
:100A200010BD0000083802401E150008000000201C
:100A300070B50021002200230020274C246804F018
:100A40000C0424B1042C04D0082C41D103E0234829
:100A500040E023483EE0204C241F246804F03F017E
:100A60001D4C241F246804F4800484B11C4CB4FB86
:100A7000F1F5194C241F246847F6C076344096FAE5
:100A8000A6F6B6FA86F6F44005FB04F20FE0134C26
:100A9000B4FBF1F5104C241F246847F6C0763440AF
:100AA00096FAA6F6B6FA86F6F44005FB04F20A4C6E
:100AB000241F246804F440344FF4403595FAA5F51A
:100AC000B5FA85F5EC40641C6300B2FBF3F001E07D
:100AD000024800BF00BF70BD083802400024F40087
:100AE00040787D0138B504460025207800F00100EB
:100AF000002866D0F748006800F00C0004280DD0EC
:100B0000F448006800F00C00082813D1F148001FD9
:100B1000006800F48000B0F5800F0BD1ED48083874
:100B20000068C0F3404000284BD06068002848D1DE
:100B3000012038BD0020E749891F0870FFF71CFD20
:100B4000054608E0FFF718FD401B41F28831884256
:100B500001D90320EDE7DF4808380068C0F34040C2
:100B60000028EFD12079DB49891F08706068A0B1A7
:100B7000FFF702FD054608E0FFF7FEFC401B41F2CF
:100B80008831884201D90320D3E7D2480838006869
:100B9000C0F340400028EFD013E0FFF7EDFC05461E
:100BA00008E0FFF7E9FC401B41F28831884201D997
:100BB0000320BEE7C74808380068C0F3404000285B
:100BC000EFD1207800F00200022869D1C148006806
:100BD00000F00C0058B1BF48006800F00C00082875
:100BE00021D1BC48001F006800F48000D8B9B94882
:100BF00008380068C0F3400020B1E068012801D047
:100C0000012096E7B3480838006820F0F800F82281
:100C100092FAA2F2B2FA82F2216991400843AD49F8
:100C2000083908603CE0E06828B30120AA49086060
:100C3000FFF7A2FC054606E0FFF79EFC401B642878
:100C400001D9032075E7A34808380068C0F34000C5
:100C50000028F1D09F480838006820F0F800F822FA
:100C600092FAA2F2B2FA82F22169914008439949BC
:100C70000839086014E0002097490860FFF77CFC01
:100C8000054606E0FFF778FC401B642801D90320E5
:100C90004FE7904808380068C0F340000028F1D1C1
:100CA000207800F0080008282CD16069A8B1012044
:100CB0008A490860FFF760FC054606E0FFF75CFC28
:100CC000401B642801D9032033E782486C30006858
:100CD000C0F340000028F1D014E000207F490860F4
:100CE000FFF74AFC054606E0FFF746FC401B642878
:100CF00001D903201DE777486C300068C0F340003D
:100D00000028F1D1207800F0040004286FD100BF42
:100D1000002000906F483830006840F080506D49E6
:100D2000383108600846006800F08050009000BF2D
:100D300000BF6B48006840F4807069490860FFF7A5
:100D40001BFC054606E0FFF717FC401B642801D991
:100D50000320EEE66248006800F480700028F2D0BC
:100D600000205C4968310870FFF706FC054608E082
:100D7000FFF702FC401B41F28831884201D9032071
:100D8000D7E6544868300068C0F340000028EFD12F
:100D9000207A504968310870A068A0B1FFF7ECFBD9
:100DA000054608E0FFF7E8FB401B41F28831884226
:100DB00001D90320BDE6474868300068C0F3400011
:100DC0000028EFD013E0FFF7D7FB054608E0FFF758
:100DD000D3FB401B41F28831884201D90320A8E6A9
:100DE0003C4868300068C0F340000028EFD1A0699B
:100DF000F0B33848006800F00C00082872D0A069F1
:100E0000022850D1002034490866FFF7B5FB05469B
:100E100006E0FFF7B1FB401B642801D9032088E6F8
:100E20002C4808380068C0F340600028F1D1D4E9AC
:100E30000701084347F6C07292FAA2F2B2FA82F2B0
:100E4000616A914008430122A16AC2EB51014FF44B
:100E5000403292FAA2F2B2FA82F2914008434FF085
:100E6000706292FAA2F2B2FA82F2E16A914000E074
:100E70003AE008431749091F08600120164908662F
:100E8000FFF77AFB054606E0FFF776FB401B642878
:100E900001D903204DE60F4808380068C0F34060D0
:100EA0000028F1D020E000200B490866FFF764FB22
:100EB000054606E0FFF760FB401B642801D90320CC
:100EC00037E6044808380068C0F340600028F1D1D4
:100ED0000AE007E00838024000004742800E47421F
:100EE00000700040012024E6002022E6042808D1FA
:100EF0004FF0E021096941F004014FF0E022116157
:100F000007E04FF0E021096921F004014FF0E022F1
:100F10001161704770B504462546681EB0F1807FA8
:100F200001D301200FE0681E4FF0E02148610F213E
:100F30004FF0FF3000F03AF900204FF0E0218861D7
:100F400007200861002070BD7047014691F8390004
:100F50007047F8B50446002500262068006800F0B8
:100F600001052068C06800F480767DB176B100BFCD
:100F70000020009020680068009020684068009081
:100F800000BF00BFE06B40F00100E0632068006834
:100F9000C0F340052068406900F001067DB176B1DC
:100FA00000BF002000902068006800902068406822
:100FB000009000BF00BFE06B40F00400E0632068D9
:100FC0000068C0F380052068406900F001067DB12B
:100FD00076B100BF00200090206800680090206873
:100FE0004068009000BF00BFE06B40F00200E0638B
:100FF00020680068C0F3C0052068406900F0010661
:101000007DB176B100BF002000902068006800909C
:1010100020684068009000BF00BFE06B40F008000F
:10102000E06320680068C0F340152068C06800F0E5
:1010300020061DB116B1204600F050F92068006866
:10104000C0F3C0152068C06800F080061DB116B15D
:10105000204600F0A1F920680068C0F380152068E0
:10106000C06800F040061DB116B1204600F01EF920
:10107000E06B28B1012084F839002046FFF764FFB7
:10108000F8BD30B50346002493F83940012C01D057
:10109000122C37D101B10AB9012030BD00BF93F83D
:1010A0003800012801D10220F7E7012083F8380039
:1010B00000BF99629A85DA850020D86393F83900D9
:1010C000122803D1322083F8390002E0222083F86D
:1010D00039001868C06840F480701D68E8601868BE
:1010E000406940F001001D68686100BF002083F87E
:1010F000380000BF1868C06840F020001D68E86034
:101100000020CAE70220C8E71D4A0168914236D193
:101110001C49098801F4004189BB1A49098801F476
:10112000804171B1184909780A2903D00021154A74
:10113000118024E01349098841F40041114A1180CB
:101140001DE0114909780D2906D10E49098841F49D
:1011500080410C4A118012E00B490978094A128833
:10116000C2F30D02094B995406490988491C054AE6
:10117000118011460988C72901DD002111807047BF
:101180000010014010000020120000201400002078
:10119000704700BFFEE700BFFEE7704702480068E7
:1011A000C0F30220704700000CED00E010B50028ED
:1011B00007DA0A07140E054A00F00F031B1FD45468
:1011C00003E00A07130E024A135410BD18ED00E0A5
:1011D00000E400E0704770472DE9F04192B0054609
:1011E000884616461F46002400BF0020009026486F
:1011F000006840F08050244908600846006800F00C
:101200008050009000BF00BF00BF002000901F482A
:10121000006840F440401D4908600846006800F43A
:101220004040009000BF00BF0120069007900220C0
:101230000C9041050D91CDF838800F9510961197BF
:1012400006A8FFF74FFC04460CB100BFFEE7FFF70E
:1012500029FA04460CB100BFFEE70F2001900220DE
:101260000290002003904FF4A05004904FF480505F
:101270000590052101A8FFF767FA04460CB100BFED
:10128000FEE712B0BDE8F081403802400070004037
:1012900010B5FFF777F910BD0348006840F47000FF
:1012A000014908607047000088ED00E010B5044671
:1012B0002068C06820F040002168C86094F83900B8
:1012C000322803D1222084F8390002E0012084F87A
:1012D00039002046FFF75CFF002010BD70B50446C2
:1012E000002694F83960222E01D0322E52D1A06807
:1012F000B0F5805F13D1A56A206940B920684068C5
:10130000C0F308002880A06A801CA06219E0206851
:101310004068C0B22880A06A401CA06211E0206929
:1013200038B920684068C1B2A26A501CA06211702E
:1013300007E02068406800F07F01A26A501CA062AC
:101340001170E08D401E80B2E08508BB2068C06847
:1013500020F020002168C86094F83900322803D1B9
:10136000122084F839000EE02068C06820F48070F4
:101370002168C8602068406920F001002168486148
:10138000012084F839002046FFF7BEFE002070BD22
:101390000020FCE70220FAE710B50146002391F88F
:1013A0003930122B01D0322B2CD18868B0F5805FF8
:1013B0000FD10A6A1088C0F308000C6860600869E1
:1013C00018B9086A801C086209E0086A401C0862B3
:1013D00005E00C6A601C086220780C686060C88CAC
:1013E000401E80B2C88458B90868C06820F08000E8
:1013F0000C68E0600868C06840F040000C68E0607D
:10140000002010BD0220FCE710B500240C48FFF7B7
:10141000A0FD00BF01E0641C00BF0948FFF795FD77
:101420000128F8D100BF002401E0641C00BF0122A4
:1014300004490348FFF725FE0028F6D100BF10BD80
:10144000DC0000201200002000BFFEE700BF704754
:1014500010B504460420FFF749FD0148046010BDA3
:101460000800002030B50446002504E04FF47A70EF
:1014700000F004F86D1CA542F8D330BD70B50346EA
:1014800000224FF0E02675690D4E366803FB06F426
:101490004FF0E026B16910E04FF0E026B0698842D5
:1014A0000BD0884202D20E1A324402E02E1A0E44A9
:1014B00032440146A24200D300E0EDE700BF70BD18
:1014C00008000020FFF766F80823022219214FF4D4
:1014D000B470FFF781FEB420FFF7BAFFFEF70AFFF2
:1014E00013E00020094908600949C1F8B0024FF42F
:1014F000FA70FFF7B7FF0120044908600449C1F8FA
:10150000B0024FF4FA70FFF7ADFFEAE7BC024242C7
:10151000000042424FF04070E1EE100A70470000B8
:101520000000010203040102030406070809000089
:10153000501500080000002014000000E801000819
:1015400064150008140000206C0700000402000865
:101550000024F40000000000000000000000000073
:041560000000000087
:04000005080001AD41
:00000001FF
